{
  "contractName": "Attestation",
  "abi": [
    {
      "constant": true,
      "inputs": [
        {
          "name": "",
          "type": "bytes32"
        }
      ],
      "name": "documentHashMap",
      "outputs": [
        {
          "name": "",
          "type": "address"
        }
      ],
      "payable": false,
      "stateMutability": "view",
      "type": "function"
    },
    {
      "constant": true,
      "inputs": [],
      "name": "owner",
      "outputs": [
        {
          "name": "",
          "type": "address"
        }
      ],
      "payable": false,
      "stateMutability": "view",
      "type": "function"
    },
    {
      "constant": true,
      "inputs": [
        {
          "name": "",
          "type": "uint256"
        }
      ],
      "name": "history",
      "outputs": [
        {
          "name": "blockNumber",
          "type": "uint256"
        },
        {
          "name": "hash",
          "type": "bytes32"
        },
        {
          "name": "from",
          "type": "address"
        },
        {
          "name": "to",
          "type": "address"
        }
      ],
      "payable": false,
      "stateMutability": "view",
      "type": "function"
    },
    {
      "constant": true,
      "inputs": [
        {
          "name": "",
          "type": "bytes32"
        }
      ],
      "name": "usedHashes",
      "outputs": [
        {
          "name": "",
          "type": "bool"
        }
      ],
      "payable": false,
      "stateMutability": "view",
      "type": "function"
    },
    {
      "inputs": [],
      "payable": false,
      "stateMutability": "nonpayable",
      "type": "constructor"
    },
    {
      "payable": true,
      "stateMutability": "payable",
      "type": "fallback"
    },
    {
      "anonymous": false,
      "inputs": [
        {
          "indexed": false,
          "name": "blockNumber",
          "type": "uint256"
        },
        {
          "indexed": true,
          "name": "hash",
          "type": "bytes32"
        },
        {
          "indexed": true,
          "name": "from",
          "type": "address"
        },
        {
          "indexed": true,
          "name": "to",
          "type": "address"
        }
      ],
      "name": "DocumentEvent",
      "type": "event"
    },
    {
      "anonymous": false,
      "inputs": [
        {
          "indexed": true,
          "name": "sender",
          "type": "address"
        },
        {
          "indexed": false,
          "name": "value",
          "type": "uint256"
        }
      ],
      "name": "Deposit",
      "type": "event"
    },
    {
      "constant": false,
      "inputs": [],
      "name": "withdrawFunds",
      "outputs": [],
      "payable": false,
      "stateMutability": "nonpayable",
      "type": "function"
    },
    {
      "constant": false,
      "inputs": [
        {
          "name": "hash",
          "type": "bytes32"
        }
      ],
      "name": "newDocument",
      "outputs": [
        {
          "name": "success",
          "type": "bool"
        }
      ],
      "payable": false,
      "stateMutability": "nonpayable",
      "type": "function"
    },
    {
      "constant": false,
      "inputs": [
        {
          "name": "hash",
          "type": "bytes32"
        },
        {
          "name": "recipient",
          "type": "address"
        }
      ],
      "name": "transferDocument",
      "outputs": [
        {
          "name": "success",
          "type": "bool"
        }
      ],
      "payable": false,
      "stateMutability": "nonpayable",
      "type": "function"
    },
    {
      "constant": true,
      "inputs": [
        {
          "name": "hash",
          "type": "bytes32"
        }
      ],
      "name": "documentExists",
      "outputs": [
        {
          "name": "exists",
          "type": "bool"
        }
      ],
      "payable": false,
      "stateMutability": "view",
      "type": "function"
    },
    {
      "constant": true,
      "inputs": [
        {
          "name": "docId",
          "type": "uint256"
        }
      ],
      "name": "getDocument",
      "outputs": [
        {
          "name": "blockNumber",
          "type": "uint256"
        },
        {
          "name": "hash",
          "type": "bytes32"
        },
        {
          "name": "from",
          "type": "address"
        },
        {
          "name": "to",
          "type": "address"
        }
      ],
      "payable": false,
      "stateMutability": "view",
      "type": "function"
    },
    {
      "constant": true,
      "inputs": [],
      "name": "getLatest",
      "outputs": [
        {
          "name": "latest",
          "type": "uint256"
        }
      ],
      "payable": false,
      "stateMutability": "view",
      "type": "function"
    }
  ],
  "bytecode": "0x608060405234801561001057600080fd5b50336000806101000a81548173ffffffffffffffffffffffffffffffffffffffff021916908373ffffffffffffffffffffffffffffffffffffffff160217905550610be2806100606000396000f3fe6080604052600436106100915760003560e01c8063a7a38f0b11610059578063a7a38f0b146102e3578063aef18bf71461039f578063c36af460146103f2578063cbfe6d411461041d578063deaf5a5e1461047057610091565b806306ae19a2146100eb57806324600fc3146101665780632847a7af1461017d5780633f9b250a146101d05780638da5cb5b1461028c575b60003411156100e9573373ffffffffffffffffffffffffffffffffffffffff167fe1fffcc4923d04b559f4d29a8bfc6cda04eb5b0d3c460751c2402c5c5cc9109c346040518082815260200191505060405180910390a25b005b3480156100f757600080fd5b506101246004803603602081101561010e57600080fd5b81019080803590602001909291905050506104e3565b604051808273ffffffffffffffffffffffffffffffffffffffff1673ffffffffffffffffffffffffffffffffffffffff16815260200191505060405180910390f35b34801561017257600080fd5b5061017b610516565b005b34801561018957600080fd5b506101b6600480360360208110156101a057600080fd5b810190808035906020019092919050505061065f565b604051808215151515815260200191505060405180910390f35b3480156101dc57600080fd5b50610209600480360360208110156101f357600080fd5b81019080803590602001909291905050506106bc565b604051808581526020018481526020018373ffffffffffffffffffffffffffffffffffffffff1673ffffffffffffffffffffffffffffffffffffffff1681526020018273ffffffffffffffffffffffffffffffffffffffff1673ffffffffffffffffffffffffffffffffffffffff16815260200194505050505060405180910390f35b34801561029857600080fd5b506102a16107ce565b604051808273ffffffffffffffffffffffffffffffffffffffff1673ffffffffffffffffffffffffffffffffffffffff16815260200191505060405180910390f35b3480156102ef57600080fd5b5061031c6004803603602081101561030657600080fd5b81019080803590602001909291905050506107f3565b604051808581526020018481526020018373ffffffffffffffffffffffffffffffffffffffff1673ffffffffffffffffffffffffffffffffffffffff1681526020018273ffffffffffffffffffffffffffffffffffffffff1673ffffffffffffffffffffffffffffffffffffffff16815260200194505050505060405180910390f35b3480156103ab57600080fd5b506103d8600480360360208110156103c257600080fd5b8101908080359060200190929190505050610863565b604051808215151515815260200191505060405180910390f35b3480156103fe57600080fd5b50610407610883565b6040518082815260200191505060405180910390f35b34801561042957600080fd5b506104566004803603602081101561044057600080fd5b810190808035906020019092919050505061088d565b604051808215151515815260200191505060405180910390f35b34801561047c57600080fd5b506104c96004803603604081101561049357600080fd5b8101908080359060200190929190803573ffffffffffffffffffffffffffffffffffffffff1690602001909291905050506108cb565b604051808215151515815260200191505060405180910390f35b60046020528060005260406000206000915054906101000a900473ffffffffffffffffffffffffffffffffffffffff1681565b6000809054906101000a900473ffffffffffffffffffffffffffffffffffffffff1673ffffffffffffffffffffffffffffffffffffffff163373ffffffffffffffffffffffffffffffffffffffff16146105d8576040517f08c379a000000000000000000000000000000000000000000000000000000000815260040180806020018281038252601a8152602001807f4f6e6c79206f776e657220686173207065726d697373696f6e7300000000000081525060200191505060405180910390fd5b60003073ffffffffffffffffffffffffffffffffffffffff163190506000809054906101000a900473ffffffffffffffffffffffffffffffffffffffff1673ffffffffffffffffffffffffffffffffffffffff166108fc829081150290604051600060405180830381858888f1935050505015801561065b573d6000803e3d6000fd5b5050565b600061066a8261088d565b1561067857600090506106b4565b61068382333361095f565b60016003600084815260200190815260200160002060006101000a81548160ff021916908315150217905550600190505b809050919050565b6000806000806106ca610b5f565b6002600087815260200190815260200160002060405180608001604052908160008201548152602001600182015481526020016002820160009054906101000a900473ffffffffffffffffffffffffffffffffffffffff1673ffffffffffffffffffffffffffffffffffffffff1673ffffffffffffffffffffffffffffffffffffffff1681526020016003820160009054906101000a900473ffffffffffffffffffffffffffffffffffffffff1673ffffffffffffffffffffffffffffffffffffffff1673ffffffffffffffffffffffffffffffffffffffff1681525050905080600001519450806020015193508060400151925080606001519150509193509193565b6000809054906101000a900473ffffffffffffffffffffffffffffffffffffffff1681565b60026020528060005260406000206000915090508060000154908060010154908060020160009054906101000a900473ffffffffffffffffffffffffffffffffffffffff16908060030160009054906101000a900473ffffffffffffffffffffffffffffffffffffffff16905084565b60036020528060005260406000206000915054906101000a900460ff1681565b6000600154905090565b60006003600083815260200190815260200160002060009054906101000a900460ff16156108be57600190506108c3565b600090505b809050919050565b60008090506108d98361088d565b15610956573373ffffffffffffffffffffffffffffffffffffffff166004600085815260200190815260200160002060009054906101000a900473ffffffffffffffffffffffffffffffffffffffff1673ffffffffffffffffffffffffffffffffffffffff1614156109555761095083338461095f565b600190505b5b80905092915050565b60016000815460010191905081905550806004600085815260200190815260200160002060006101000a81548173ffffffffffffffffffffffffffffffffffffffff021916908373ffffffffffffffffffffffffffffffffffffffff16021790555060016003600085815260200190815260200160002060006101000a81548160ff02191690831515021790555060405180608001604052804381526020018481526020018373ffffffffffffffffffffffffffffffffffffffff1681526020018273ffffffffffffffffffffffffffffffffffffffff16815250600260006001548152602001908152602001600020600082015181600001556020820151816001015560408201518160020160006101000a81548173ffffffffffffffffffffffffffffffffffffffff021916908373ffffffffffffffffffffffffffffffffffffffff16021790555060608201518160030160006101000a81548173ffffffffffffffffffffffffffffffffffffffff021916908373ffffffffffffffffffffffffffffffffffffffff1602179055509050508073ffffffffffffffffffffffffffffffffffffffff168273ffffffffffffffffffffffffffffffffffffffff16847f7eb8c51c420936187e4556bc844b0f224888f66ea225667930ccd4f3b088389f436040518082815260200191505060405180910390a4505050565b60405180608001604052806000815260200160008019168152602001600073ffffffffffffffffffffffffffffffffffffffff168152602001600073ffffffffffffffffffffffffffffffffffffffff168152509056fea165627a7a723058204b30b5907514f7bb74ed2cd73946ea944174c348e33aef28ada00d18d9a822730029",
  "source": "pragma solidity >=0.4.22 <0.6.0;\n\ncontract Attestation {\n    address payable public owner;\n    uint latestDocument;\n    mapping(uint => DocumentTransfer) public history;\n    mapping(bytes32 => bool) public usedHashes;\n    mapping(bytes32 => address) public documentHashMap;\n\n    event DocumentEvent(uint blockNumber, bytes32 indexed hash, address indexed from, address indexed to);\n    event Deposit(address indexed sender, uint value);\n\n    struct DocumentTransfer {\n        uint blockNumber;\n        bytes32 hash;\n        address from;\n        address to;\n    }\n\n    modifier onlyOwner() {\n        //if (msg.sender == owner)\n        require(msg.sender == owner, \"Only owner has permissions\");\n        _;\n    }\n\n    /// @dev Fallback function allows to deposit ether.\n    function() external payable {\n        //revert(\"Reverting... fallback function\");\n        if (msg.value > 0)\n            emit Deposit(msg.sender, msg.value);\n    }\n\n    constructor() public {\n        owner = msg.sender;\n    }\n\n    // In case you sent funds by accident\n    function withdrawFunds() public onlyOwner{\n        uint256 balance = address(this).balance;\n        address(owner).transfer(balance);\n    }\n\n    function newDocument(bytes32 hash) public returns (bool success){\n        if (documentExists(hash)) {\n            success = false;\n        }\n        else {\n            createHistory(hash, msg.sender, msg.sender);\n            usedHashes[hash] = true;\n            success = true;\n        }\n        return success;\n    }\n    function createHistory (bytes32 hash, address from, address to) internal {\n            ++latestDocument;\n            documentHashMap[hash] = to;\n            usedHashes[hash] = true;\n            history[latestDocument] = DocumentTransfer(block.number, hash, from, to);\n            emit DocumentEvent(block.number, hash, from,to);\n    }\n\n    function transferDocument(bytes32 hash, address recipient) public returns (bool success){\n        success = false;\n\n        if (documentExists(hash)){\n            if (documentHashMap[hash] == msg.sender){\n                createHistory(hash, msg.sender, recipient);\n                success = true;\n            }\n        }\n\n        return success;\n    }\n\n    function documentExists(bytes32 hash) public view returns (bool exists){\n        if (usedHashes[hash]) {\n            exists = true;\n        }else{\n            exists = false;\n        }\n        return exists;\n    }\n\n    function getDocument(uint docId) public view returns (uint blockNumber, bytes32 hash, address from, address to){\n        DocumentTransfer memory doc = history[docId];\n        blockNumber = doc.blockNumber;\n        hash = doc.hash;\n        from = doc.from;\n        to = doc.to;\n    }\n\n    function getLatest() public view returns (uint latest){\n        return latestDocument;\n    }\n}\n",
  "sourcePath": "/Users/edgarherrador/Documents/Projects/attestation/contracts/Attestation.sol",
  "compiler": {
    "name": "solc",
    "version": "0.5.8+commit.23d335f2.Emscripten.clang"
  },
  "schemaVersion": "3.0.11",
  "updatedAt": "2019-08-19T10:57:20.281Z",
  "devdoc": {
    "methods": {}
  },
  "userdoc": {
    "methods": {}
  }
}